:100000000C9444000C9400000C9400000C9400002C
:100010000C9400000C9400000C9400000C94000060
:100020000C9400000C9400000C9400000C94000050
:100030000C9400000C9400000C9400000C94000040
:100040000C9400000C9400000C9473000C940000BD
:100050000C9493000C9400000C9400000C9400008D
:100060000C9400000C9400001027E80364000A00C0
:10007000010000100001100001000000000000005D
:10008000060003007A000000F894EE27EFBBF1E0D1
:10009000F5BFE5BF8DE0A2E0BB27ED938A95E9F7B8
:1000A00080E098E0A0E0B1E0ED930197E9F7E0E8A7
:1000B000F0E085919591009761F0A591B59105903B
:1000C0001590BF01F00105900D920197E1F7FB013A
:1000D000F0CFE0E0EEBBEFEFEDBFE8E0EEBFC0E059
:1000E000D3E00C943301EA93FA93EFB7EA931A93AF
:1000F0000A931091C0000091C600E12FEC7181F4C9
:10010000E42D4394F0E0E050FD4F0083E0E4E4157B
:1001100009F444246394E0E4E61511F46624F09AAB
:100120000991199113C0EA93FA93EFB7EA937720F4
:1001300069F07A94E82D8394F0E0E05CFC4FE08174
:10014000E093C600E0E4E81509F48824E991EFBFE4
:10015000F991E9911895AA93E0E4E715E9F3F89489
:10016000772021F4E091C000E07269F4E52D53940A
:10017000F0E0E05CFC4FA881A083E0E4E51509F421
:100180005524739403C0E881E093C600789469C055
:10019000AA93E881E03029F40E94C8012A9A2B9A98
:1001A0002C98A881A13029F45E980E94CD012B984B
:1001B0002C98A881A23039F45E9A289A29985D9AE1
:1001C0002A9A2B982C9AA881A33029F40E94C8015E
:1001D0002A982B982C9AA881A43029F45E980E9422
:1001E000CD012B9A2C9AA881A53039F45E9A2898D3
:1001F000299A5D9A2A982B9A2C9AA881A63039F4CC
:100200005E9A2898299A5D9A2A9A2B9A2C9AA88104
:10021000A73029F45E9A0E94CD012B982C98A881D2
:10022000A83029F40E94C8012A9A2B9A2C9AA881F6
:10023000A93029F40E94C8012A982B9A2C9AA881E7
:10024000A03139F45E98289829985D982A982B98BF
:100250002C98A881A43129F40E94C8012A9A2B9ACB
:100260002C9A21960895E0E8E0936100E0E0E093A5
:100270006100E093C000E8EDE093C100E6E0E093A8
:10028000C200E0E0E093C500E7E6E093C400569AC0
:10029000209A219A559A229A239A249A54985C9AE1
:1002A00057985F9A3898409AA4E172DFA8EEB3E0BD
:1002B0000E94E101A0E16CDFA4EFB1E00E94E10146
:1002C0000E94D201CA2CB92CE0E03099E1E0DE2E88
:1002D000D09280037894A3E53EDFA5E43CDFA4E55B
:1002E0003ADFA5E538DFA0E536DF0E94DB01CA2C46
:1002F000B92C0E94D201D0928003E0E03099E1E075
:10030000DE2EDD2021F4A0918003A13009F01AC077
:10031000E09181030E94EB01E0938103E03031F032
:10032000AE2D36DFAFE417DFAEE407C0A0E130DF6B
:10033000AFE411DFA6E40FDFA6E40DDF0E94DB01CE
:10034000A7E009DFE0918103E030E1F0992019F4A2
:10035000E1E0EB1509F008C0E9E0EE1511F4EE2438
:1003600001C0E394AE2D14DFAA2019F4E1E0EC15EE
:1003700009F008C0EE2019F4E9E0EE2E01C0EA947D
:10038000AE2D06DFA4E1B0E00E94E101B0CFFFCFC7
:100390005E9A289A299A5D9A0895289A299A5D98D2
:1003A0002A980895E0E04C99E1E0AE2EE0E04F9904
:1003B000E1E09E2E0895AAE00E94AB00ADE00C940F
:1003C000AB00109639F080EA9FE00197F1F7A8950D
:1003D0001197C9F70895EE23E1E009F0EE2708959B
:00000001FF
