:020000000C945E
:1000020044000C9400000C9473000C9400000C94B7
:1000120000000C9400000C9400000C9400000C945E
:1000220000000C9400000C9400000C9400000C944E
:1000320000000C9400000C9400000C9400000C943E
:1000420000000C9400000C9495000C9400000C9499
:10005200B3000C9400000C9400000C9400000C946B
:1000620000000C9400001027E80364000A0001005D
:100072000010000110000100000000000000060056
:1000820005007A000000F894EE27EFBBF1E0F5BF1F
:10009200E5BF8DE0A2E0BB27ED938A95E9F780E00A
:1000A20098E0A0E0B1E0ED930197E9F7E0E8F0E035
:1000B20085919591009761F0A591B5910590159064
:1000C200BF01F00105900D920197E1F7FB01F0CF1E
:1000D200E0E0EEBBEFEFEDBFE8E0EEBFC0E0D3E063
:1000E2000C9470010E941D02E1E0F0E03E0E4F1EF2
:1000F2004AC0AA93E881E064E0937C0085E38A9594
:10010200F1F7E0917A00E064E0937A00E0917A00FE
:10011200E071E1F3E0917A00E061E0937A00E0912E
:100122007800F0917900BAC00E941D021A930A93D6
:100132001091C0000091C600E12FEC7181F4E62D10
:100142006394F0E0E050FD4F0083E0E4E61509F42B
:1001520066248394E0E4E81511F48824F09A099166
:10016200199111C00E941D02992069F09A94EA2DFA
:10017200A394F0E0E05CFC4FE081E093C600E0E491
:10018200EA1509F4AA24E991EFBFF991E9911895CA
:10019200AA93E0E4E915E9F3F894992021F4E091B7
:1001A200C000E07269F4E72D7394F0E0E05CFC4F6C
:1001B200A881A083E0E4E71509F47724939403C0AF
:1001C200E881E093C600789469C0AA93E881E030A0
:1001D20029F40E9422022A9A2B9A2C98A881A130F3
:1001E20029F45E980E9427022B982C98A881A230AD
:1001F20039F45E9A289A29985D9A2A9A2B982C9A11
:10020200A881A33029F40E9422022A982B982C9AC2
:10021200A881A43029F45E980E9427022B9A2C9A76
:10022200A881A53039F45E9A2898299A5D9A2A986D
:100232002B9A2C9AA881A63039F45E9A2898299A8A
:100242005D9A2A9A2B9A2C9AA881A73029F45E9A51
:100252000E9427022B982C98A881A83029F40E948A
:1002620022022A9A2B9A2C9AA881A93029F40E9458
:1002720022022A982B9A2C9AA881A03139F45E98EE
:10028200289829985D982A982B982C98A881A431AF
:1002920029F40E9422022A9A2B9A2C9A21960895D6
:1002A200BA93AA93A881B981E0E1F7E20E945B02C6
:1002B2000E942C02E8EEF3E00E943302E4E6F0E052
:1002C2000E943302EAE0F0E00E943302EAE0F0E04A
:1002D2000E946E02E05DAE2F5BDF22960895E0E899
:1002E200E0936100E0E0E0936100E093C000E8ED9C
:1002F200E093C100E6E0E093C200E0E0E093C500D5
:10030200E7E6E093C400E0E0E0937E00E0E4E093FF
:100312007C00E4E8E0937A00E0E0E0937B00E8E030
:10032200E0936900E2E0EDBBECBBE0E0E093680043
:10033200569A209A219A559A229A239A249A549844
:100342005C9A57985F9A3898409AA4E13EDFA8EEEB
:10035200B3E00E944C02A0E138DFA4EFB1E00E94BA
:100362004C020E943B02EC2CDB2CE0E03099E1E0F5
:10037200E0938003E09381037894A3E509DFA5E489
:1003820007DFA4E505DFA5E503DFA0E50E9444023F
:10039200EC2CDB2C0E943B02E0918003E093810372
:1003A200E0E03099E1E0E0938003A6E0A2DEE09392
:1003B2008303F0938403A7E09CDEE0938503F0932C
:1003C2008603A0918003A03021F4A0918103A13083
:1003D20009F00AC0E09182030E945602E093820370
:1003E200E03011F4A0E1F1DEA0918303B091840327
:1003F20057DFA0E2CDDEA0918503B091860350DFE6
:10040200A0E2C6DEA32DB42D4BDFA0E20E9444027F
:10041200E0918203E03041F0A32DB42DEAE0F0E058
:100422000E946E02AE2F01C0A0E1CFDEA8ECB0E0C8
:100432000E944C02ADCFFFCFEA93FA93EFB7EA9353
:1004420008955E9A289A299A5D9A0895289A299A77
:100452005D982A980895E05DAE2F0E94C900A88198
:10046200B98108950E945B02DF01EAE0F0E00E9498
:100472006E02F1CFE0E04C99E1E0CE2EE0E04F9940
:10048200E1E0BE2E08950E94C900AAE00E94C900C0
:10049200ADE00C94C900109639F080EA9FE0019714
:1004A200F1F7A8951197C9F70895EE23E1E009F055
:1004B200EE2708950024112490E1AA0FBB1F001C0F
:1004C200111C0E1A1F0A18F40E0E1F1E01C0A16085
:1004D2009A9599F7FD01D0010895ECDFFD01089589
:00000001FF
