:0C0000000C9444000C9400000C940000D0
:10000C000C9400000C9400000C9400000C94000064
:10001C000C9400000C9400000C9400000C94000054
:10002C000C9400000C9400000C9400000C94000044
:10003C000C9400000C9400000C9400000C947300C1
:10004C000C9400000C9493000C9400000C94000091
:10005C000C9400000C9400000C9400001027E80392
:10006C0064000A00010000100001100001000000F3
:10007C0000000000060003007A000000F894EE2750
:10008C00EFBBF1E0F5BFE5BF8DE0A2E0BB27ED9340
:10009C008A95E9F780E098E0A0E0B1E0ED93019754
:1000AC00E9F7E0E8F0E085919591009761F0A59172
:1000BC00B59105901590BF01F00105900D92019737
:1000CC00E1F7FB01F0CFE0E0EEBBEFEFEDBFE8E0D6
:1000DC00EEBFC0E0D3E00C943301EA93FA93EFB790
:1000EC00EA931A930A931091C0000091C600E12F75
:1000FC00EC7181F4E42D4394F0E0E050FD4F00836B
:10010C00E0E4E41509F444246394E0E4E61511F406
:10011C006624F09A0991199113C0EA93FA93EFB7F8
:10012C00EA93772069F07A94E82D8394F0E0E05C10
:10013C00FC4FE081E093C600E0E4E81509F4882464
:10014C00E991EFBFF991E9911895AA93E0E4E715CD
:10015C00E9F3F894772021F4E091C000E07269F49F
:10016C00E52D5394F0E0E05CFC4FA881A083E0E423
:10017C00E51509F45524739403C0E881E093C60097
:10018C00789469C0AA93E881E03029F40E94D301E5
:10019C002A9A2B9A2C98A881A13029F45E980E9457
:1001AC00D8012B982C98A881A23039F45E9A289A01
:1001BC0029985D9A2A9A2B982C9AA881A33029F415
:1001CC000E94D3012A982B982C9AA881A43029F448
:1001DC005E980E94D8012B9A2C9AA881A53039F4EC
:1001EC005E9A2898299A5D9A2A982B9A2C9AA8811B
:1001FC00A63039F45E9A2898299A5D9A2A9A2B9AF5
:10020C002C9AA881A73029F45E9A0E94D8012B98C9
:10021C002C98A881A83029F40E94D3012A9A2B9AF1
:10022C002C9AA881A93029F40E94D3012A982B9AE0
:10023C002C9AA881A03139F45E98289829985D9859
:10024C002A982B982C98A881A43129F40E94D301C8
:10025C002A9A2B9A2C9A21960895E0E8E093610053
:10026C00E0E0E0936100E093C000E8EDE093C100B2
:10027C00E6E0E093C200E0E0E093C500E7E6E0933F
:10028C00C400569A209A219A559A229A239A249A13
:10029C0054985C9A57985F9A3898409AA4E172DF08
:1002AC00A8EEB3E00E940F02A0E16CDFA4EFB1E076
:1002BC000E940F020E94DD01CA2CB92CE0E030999B
:1002CC00E1E0DE2ED09280037894A3E53EDFA5E436
:1002DC003CDFA4E53ADFA5E538DFA0E50E94E601A6
:1002EC00CA2CB92C0E94DD01D0928003E0E0309939
:1002FC00E1E0DE2EDD2021F4A0918003A13009F095
:10030C001EC0E09181030E941D02E0938103E03046
:10031C0041F00E94EE01AE2F35DFAFE416DFAEE404
:10032C0007C0A0E12FDFAFE410DFA6E40EDFA6E4E8
:10033C000CDFAAE00ADFADE008DFA7E006DFE09102
:10034C008103E03021F1992019F4E1E0EB1509F07B
:10035C000CC0EAE0EE1648F4E3940E94F6010E9409
:10036C0006020E94EE01AE2F0DDFAA2019F4E1E087
:10037C00EC1509F00CC0E0E0EE1548F4EA940E948C
:10038C00F6010E9406020E94EE01AE2FFBDEA4E1F4
:10039C00B0E00E940F02A4CFFFCF5E9A289A299A50
:1003AC005D9A0895289A299A5D982A980895E0E014
:1003BC004C99E1E0AE2EE0E04F99E1E09E2E0895DD
:1003CC000E94AB00AAE00E94AB00ADE00C94AB0025
:1003DC00A0918203BB27EAE0F0E00E943A02089564
:1003EC00EE2DEC5EE0938203A0918203B0E0EAE094
:1003FC00F0E00E943502E05DAE2F0E94AB00E8CF2A
:10040C00E05DAE2F0E94AB00AAEB0E94AB00A3E410
:10041C00D7CF109639F080EA9FE00197F1F7A895B5
:10042C001197C9F70895F195E195F0400895EE23E1
:10043C00E1E009F0EE2708950024112490E1AA0FC1
:10044C00BB1F001C111C0E1A1F0A18F40E0E1F1EC7
:10045C0001C0A1609A9599F7FD01D001089512D0C1
:10046C00EBDF0EF4E0DF0895E894B7FF04C0A0952D
:10047C00B09511966894F7FDD6DFDEDFFD010EF422
:10048C00D2DF0895E894F7FF02C0CDDF6894B7FF80
:10049C0006C0A095B095119600F8039400FA089543
:00000001FF
