:080000000C9444000C94000074
:100008000C9400000C9400000C9400000C94000068
:100018000C9400000C9400000C9400000C94000058
:100028000C9400000C9400000C9400000C94000048
:100038000C9400000C9400000C9400000C94000038
:100048000C948E000C9400000C94AE000C940000EC
:100058000C9400000C9400000C9400000C94000018
:100068001027E80364000A000100001000011000D6
:100078000100000000000000060003007A000000F4
:10008800F894EE27EFBBF1E0F5BFE5BF8DE0A2E005
:10009800BB27ED938A95E9F780E098E0A0E0B1E00E
:1000A800ED930197E9F7E0E8F0E0859195910097E5
:1000B80061F0A591B59105901590BF01F0010590EB
:1000C8000D920197E1F7FB01F0CFE0E0EEBBEFEF17
:1000D800EDBFE8E0EEBFC0E0D3E00C946C01AA935A
:1000E800E881E064E0937C0085E38A95F1F7E0918C
:1000F8007A00E064E0937A00E0917A00E071E1F33D
:10010800E0917A00E061E0937A00E0917800F09164
:100118007900BEC0EA93FA93EFB7EA931A930A9369
:100128001091C0000091C600E12FEC7181F4E42D1C
:100138004394F0E0E050FD4F0083E0E4E41509F457
:1001480044246394E0E4E61511F46624F09A0991D6
:10015800199113C0EA93FA93EFB7EA93772069F0FD
:100168007A94E82D8394F0E0E05CFC4FE081E09322
:10017800C600E0E4E81509F48824E991EFBFF99195
:10018800E9911895AA93E0E4E715E9F3F894772044
:1001980021F4E091C000E07269F4E52D5394F0E099
:1001A800E05CFC4FA881A083E0E4E51509F4552440
:1001B800739403C0E881E093C600789469C0AA9359
:1001C800E881E03029F40E943B022A9A2B9A2C9865
:1001D800A881A13029F45E980E9440022B982C989F
:1001E800A881A23039F45E9A289A29985D9A2A9AA9
:1001F8002B982C9AA881A33029F40E943B022A98B4
:100208002B982C9AA881A43029F45E980E94400269
:100218002B9A2C9AA881A53039F45E9A2898299AA5
:100228005D9A2A982B9A2C9AA881A63039F45E9A5E
:100238002898299A5D9A2A9A2B9A2C9AA881A730ED
:1002480029F45E9A0E9440022B982C98A881A83025
:1002580029F40E943B022A9A2B9A2C9AA881A93049
:1002680029F40E943B022A982B9A2C9AA881A03143
:1002780039F45E98289829985D982A982B982C9894
:10028800A881A43129F40E943B022A9A2B9A2C9A1D
:1002980021960895BA93AA93A881B981E0E1F7E27B
:1002A8000E9495020E944502E8EEF3E00E944C028B
:1002B800E4E6F0E00E944C02EAE0F0E00E944C0222
:1002C800EAE0F0E00E94AD020E94540222960895EE
:1002D800E0E8E0936100E0E0E0936100E093C000B3
:1002E800E8EDE093C100E6E0E093C200E0E0E093CF
:1002F800C500E7E6E093C400E0E0E0937E00E0E4B8
:10030800E0937C00E4E8E0937A00E0E0E0937B008F
:10031800569A209A219A559A229A239A249A54985E
:100328005C9A57985F9A3898409AA4E148DFA8EEFB
:10033800B3E00E948202A0E142DFA4EFB1E00E9494
:1003480082020E945802CA2CB92CE0E03099E1E000
:10035800DE2ED09280037894A3E514DFA5E412DFA3
:10036800A4E510DFA5E50EDFA0E50E946102CA2C16
:10037800B92C0E945802D0928003E0E03099E1E065
:10038800DE2EA6E0ACDEE0938303F0938403A7E0BF
:10039800A6DEE0938503F0938603DD2021F4A09187
:1003A8008003A13009F01EC0E09181030E949002F1
:1003B800E0938103E03041F00E946902AE2FFFDE36
:1003C800AFE4E0DEAEE407C0A0E1F9DEAFE4DADED8
:1003D800A6E4D8DEA6E4D6DEAAE0D4DEADE0D2DE1E
:1003E800A7E0D0DEE0918103E03061F1992019F4B3
:1003F800E1E0EB1509F010C0EAE0EE1668F4E394CA
:100408000E9471020E9469020E9454020E947D02A9
:100418000E946902AE2FD3DEAA2019F4E1E0EC15A0
:1004280009F010C0E0E0EE1568F4EA940E94710249
:100438000E9469020E9454020E947D020E94690281
:10044800AE2FBDDEA0918303B091840323DFA0E229
:1004580099DEA0918503B09186031CDFA0E20E947B
:100468006102A8ECB0E00E94820281CFFFCF5E9AC1
:10047800289A299A5D9A0895289A299A5D982A981F
:100488000895E05DAE2F0E94C600A881B981089545
:100498000E949502DF01EAE0F0E00E94AD02F1CF90
:1004A800E05DAE2F0C94C600E0E04C99E1E0AE2E82
:1004B800E0E04F99E1E09E2E08950E94C600AAE070
:1004C8000E94C600ADE00C94C600A0918203BB2731
:1004D800EAE0F0E00E94B0020895EE2DEC5EE093B1
:1004E8008203A0918203B0E0EAE0F0E00E94A80253
:1004F800D7CFAAEB0E94C600A3E4DFCF109639F04D
:1005080080EA9FE00197F1F7A8951197C9F7089538
:10051800F195E195F0400895EE23E1E009F0EE272A
:1005280008950024112490E1AA0FBB1F001C111C80
:100538000E1A1F0A18F40E0E1F1E01C0A1609A950C
:1005480099F7FD01D001089515D0EBDF0EF4E0DF37
:100558000895E7DFFD010895E894B7FF04C0A0956A
:10056800B09511966894F7FDD3DFDBDFFD010EF43B
:10057800CFDF0895E894F7FF02C0CADF6894B7FF99
:1005880006C0A095B095119600F8039400FA089556
:00000001FF
