:0C0000000C9434000C9400000C940000E0
:10000C000C9400000C9400000C9400000C94000064
:10001C000C9400000C9400000C9400000C94000054
:10002C000C9400000C9400000C9400000C94000044
:10003C000C9400000C9400000C9400000C94000034
:10004C000C9400000C9400000C9400000C94000024
:10005C000C9400000C9400000C940000F894EE2713
:10006C00EFBBF1E0F5BFE5BF8DE0A2E0BB27ED9360
:10007C008A95E9F780E098E0A0E0B1E0ED93019774
:10008C00E9F7E0E0EEBBEFEFEDBFE8E0EEBFC0E07C
:10009C00D3E00C94B400AA93E881E03021F4A3D00F
:1000AC002A9A2B9A2C98A881A13021F45E98A0D082
:1000BC002B982C98A881A23039F45E9A289A29980A
:1000CC005D9A2A9A2B982C9AA881A33021F48BD074
:1000DC002A982B982C9AA881A43021F45E9888D069
:1000EC002B9A2C9AA881A53039F45E9A2898299AD3
:1000FC005D9A2A982B9A2C9AA881A63039F45E9A8C
:10010C002898299A5D9A2A9A2B9A2C9AA881A7301A
:10011C0021F45E9A6DD02B982C98A881A83021F4EC
:10012C0062D02A9A2B9A2C9AA881A93021F45BD000
:10013C002A982B9A2C9AA881A03139F45E98289889
:10014C0029985D982A982B982C98A881A43121F491
:10015C004AD02A9A2B9A2C9A21960895E0E8E0939B
:10016C006100E0E0E0936100569A209A219A559A3A
:10017C00229A239A249A54985C9A57985F9AA4E1ED
:10018C008ADFA8EEB3E00E940C01A0E184DFA4EFAB
:10019C00B1E00E940C0131D0642C532C642C532CF4
:1001AC002CD0332019F4E1E0E51509F008C0E9E0A2
:1001BC00E81511F4882401C08394A82D6CDF442029
:1001CC0019F4E1E0E61509F008C0882019F4E9E01B
:1001DC008E2E01C08A94A82D5EDFA4E1B0E00E94AF
:1001EC000C01DCCFFFCF5E9A289A299A5D9A08956C
:1001FC00289A299A5D982A980895E0E04C99E1E0B4
:10020C004E2EE0E04F99E1E03E2E0895109639F025
:10021C0080EA9FE00197F1F7A8951197C9F7089527
:00000001FF
