:100000000C9439000C9400000C9400000C94000037
:100010000C9400000C9400000C9400000C94000060
:100020000C9400000C9400000C9400000C94000050
:100030000C9400000C9400000C9400000C94000040
:100040000C9400000C9400000C9400000C94000030
:100050000C9400000C9400000C9400000C94000020
:100060000C9400000C9400000000010009006800DE
:100070000000F894EE27EFBBF1E0F5BFE5BF8DE09F
:10008000A2E0BB27ED938A95E9F780E098E0A0E035
:10009000B1E0ED930197E9F7EAE6F0E085919591FB
:1000A000009761F0A591B59105901590BF01F00101
:1000B00005900D920197E1F7FB01F0CFE0E0EEBB78
:1000C000EFEFEDBFE8E0EEBFC0E0D3E00C94CB0073
:1000D000AA93E881E03021F4C1D02A9A2B9A2C9877
:1000E000A881A13021F45E98BED02B982C98A881CD
:1000F000A23039F45E9A289A29985D9A2A9A2B9808
:100100002C9AA881A33021F4A9D02A982B982C9A54
:10011000A881A43021F45E98A6D02B9A2C9AA881AD
:10012000A53039F45E9A2898299A5D9A2A982B9AD4
:100130002C9AA881A63039F45E9A2898299A5D9A5B
:100140002A9A2B9A2C9AA881A73021F45E9A8BD0F8
:100150002B982C98A881A83021F480D02A9A2B9A29
:100160002C9AA881A93021F479D02A982B9A2C9A1C
:10017000A881A03139F45E98289829985D982A982A
:100180002B982C98A881A43121F468D02A9A2B9A14
:100190002C9A21960895E0E8E0936100E0E0E09376
:1001A0006100569A209A219A559A229A239A249A63
:1001B00054985C9A57985F9A3898409AA4E188DFDF
:1001C000A8EEB3E00E944101A0E182DFA4EFB1E01C
:1001D0000E9441014DD0642C532CE0E03099E1E0C5
:1001E0007E2EA72C642C532C43D0A72CE0E0309912
:1001F000E1E07E2E772019F4E1E0EA1509F00AC06B
:10020000E92D0E944B019E2E992011F0A82D01C0CE
:10021000A0E15EDF9920E1F0332019F4E1E0E5157B
:1002200009F008C0E9E0E81511F4882401C08394BE
:10023000A82D4EDF442019F4E1E0E61509F008C0CE
:10024000882019F4E9E08E2E01C08A94A82D40DFA1
:10025000A4E1B0E00E944101C5CFFFCF5E9A289A89
:10026000299A5D9A0895289A299A5D982A9808955E
:10027000E0E04C99E1E04E2EE0E04F99E1E03E2EC7
:100280000895109639F080EA9FE00197F1F7A8955C
:100290001197C9F70895EE23E1E009F0EE270895DC
:00000001FF
