:0C0000000C9457000C9400000C940000BD
:10000C000C9400000C9400000C9400000C94000064
:10001C000C9400000C9400000C9400000C94000054
:10002C000C9400000C9400000C9400000C94000044
:10003C000C9400000C9400000C9400000C94000034
:10004C000C9400000C9400000C9400000C94000024
:10005C000C9400000C9400000C94000001010101B0
:10006C00010100000101000000000101000101007C
:10007C000101010101000001000101000001010169
:10008C000001010001010100010101010101010157
:10009C000000000001010101010101010101010049
:1000AC000101F894EE27EFBBF1E0F5BFE5BF8DE061
:1000BC00A2E0BB27ED938A95E9F780E098E0A0E0F9
:1000CC00B1E0ED930197E9F7E0E0EEBBEFEFEDBFA8
:1000DC00E8E0EEBFC0E0D3E00C94B600AA937BD06E
:1000EC00E491E03011F45E9801C05E9A74D03196C0
:1000FC00E491E03011F4289801C0289A6CD0329623
:10010C00E491E03011F4299801C0299A64D0339617
:10011C00E491E03011F45D9801C05D9A5CD03496A6
:10012C00E491E03011F42A9801C02A9A54D0359603
:10013C00E491E03011F42B9801C02B9A4CD03696F8
:10014C00E491E03011F42C9801C02C9A219608957A
:10015C005E98289829985D982A982B982C98089541
:10016C00E0E8E0936100E0E0E0936100E0E6EAB9EA
:10017C00EFE1E4B92297E0E0E983A981AA3048F4E1
:10018C00ADDFA8ECB0E00E94FC00E981EF5FE983F1
:10019C00F4CFDEDFA4EFB1E00E94FC00E0E0E883E6
:1001AC00A881A33040F45D9A1DD05D981BD0E881E6
:1001BC00EF5FE883F5CFE0E0E883A881A33040F45B
:1001CC005E9A10D05E980ED0E881EF5FE883F5CF91
:1001DC002296D0CFFFCFE881A7E0EA9FF001E85943
:1001EC00FF4F0895A6E4B0E00C94FC00109639F093
:1001FC0080EA9FE00197F1F7A8951197C9F7089548
:00000001FF
