:020000000C945E
:1000020034000C9400000C9400000C9400000C943A
:1000120000000C9400000C9400000C9400000C945E
:1000220000000C9400000C9400000C9400000C944E
:1000320000000C9400000C9400000C9400000C943E
:1000420000000C9400000C9400000C9400000C942E
:1000520000000C9400000C9400000C9400000C941E
:1000620000000C940000F894EE27EFBBF1E0F5BF1E
:10007200E5BF8DE0A2E0BB27ED938A95E9F780E02A
:1000820098E0A0E0B1E0ED930197E9F7E0E0EEBB84
:10009200EFEFEDBFE8E0EEBFC0E0D3E00C94B400B8
:1000A200AA93E881E03021F487D02A9A2B9A2C98DF
:1000B200A881A13021F45E9884D02B982C98A88135
:1000C200A23039F45E9A289A29985D9A2A9A2B9836
:1000D2002C9AA881A33021F46FD02A982B982C9ABD
:1000E200A881A43021F45E986CD02B9A2C9AA88116
:1000F200A53039F45E9A2898299A5D9A2A982B9A03
:100102002C9AA881A63039F45E9A2898299A5D9A89
:100112002A9A2B9A2C9AA881A73021F45E9A51D060
:100122002B982C98A881A83021F446D02A9A2B9A91
:100132002C9AA881A93021F43FD02A982B9A2C9A84
:10014200A881A03139F45E98289829985D982A9858
:100152002B982C98A881A43121F42ED02A9A2B9A7C
:100162002C9A21960895E0E8E0936100E0E0E093A4
:100172006100569A209A219A559A229A239A249A91
:1001820057985F9AA4E18CDFA8EEB3E00E94E700E3
:100192004424EAE04E1640F4A42D82DFA8ECB0E03D
:1001A2000E94E7004394F5CFA0E17ADFA4EFB1E02B
:1001B2000E94E700EDCFFFCF5E9A289A299A5D9AB6
:1001C2000895289A299A5D982A980895109639F0E8
:1001D20080EA9FE00197F1F7A8951197C9F7089572
:00000001FF
