:080000000C9434000C94000084
:100008000C9400000C9400000C9400000C94000068
:100018000C9400000C9400000C9400000C94000058
:100028000C9400000C9400000C9400000C94000048
:100038000C9400000C9400000C9400000C94000038
:100048000C9400000C9400000C9400000C94000028
:100058000C9400000C9400000C9400000C94000018
:10006800F894EE27EFBBF1E0F5BFE5BF8DE0A2E025
:10007800BB27ED938A95E9F780E098E0A0E0B1E02E
:10008800ED930197E9F7E0E0EEBBEFEFEDBFE8E0B5
:10009800EEBFC0E0D3E00C94B400AA93E881E0304E
:1000A80021F482D02A9A2B9A2C98A881A13021F485
:1000B8005E987FD02B982C98A881A23039F45E9A4C
:1000C800289A29985D9A2A9A2B982C9AA881A33065
:1000D80021F46AD02A982B982C9AA881A43021F46C
:1000E8005E9867D02B9A2C9AA881A53039F45E9A2D
:1000F8002898299A5D9A2A982B9A2C9AA881A63032
:1001080039F45E9A2898299A5D9A2A9A2B9A2C9AF9
:10011800A881A73021F45E9A4CD02B982C98A881FE
:10012800A83021F441D02A9A2B9A2C9AA881A93078
:1001380021F43AD02A982B9A2C9AA881A03139F424
:100148005E98289829985D982A982B982C98A881C9
:10015800A43121F429D02A9A2B9A2C9A2196089511
:10016800E0E8E0936100E0E0E0936100E0E6EAB9EE
:10017800EFE1E4B9A4E191DFA8EEB3E00E94E20068
:100188004424EAE04E1640F4A42D87DFA8ECB0E042
:100198000E94E2004394F5CFA0E17FDFA4EFB1E035
:1001A8000E94E200EDCFFFCF5E9A289A299A5D9AC5
:1001B8000895289A299A5D982A980895109639F0F2
:1001C80080EA9FE00197F1F7A8951197C9F708957C
:00000001FF
