:100000000C945C000C9479000C9479000C947900A9
:100010000C9479000C9479000C9479000C9479007C
:100020000C9479000C9479000C9479000C9479006C
:100030000C9479000C9479000C9479000C9479005C
:100040000C944C010C9479000C9479000C94790078
:100050000C9479000C9479000C9479000C9479003C
:100060000C9479000C947900000000080002010053
:100070000003040700000000000000000000000072
:10008000250028002B0000000000240027002A0083
:10009000040404040404040402020202020203032E
:1000A0000303030301020408102040800102040836
:1000B000102001020408102011241FBECFEFD8E049
:1000C000DEBFCDBF11E0A0E0B1E0E4E7F4E002C0A4
:1000D00005900D92AE34B107D9F721E0AEE4B1E05E
:1000E00001C01D92A735B207E1F70E9496010C945A
:1000F00038020C94000090E0FC01EC55FF4F249175
:1001000080579F4FFC018491882399F090E0880FDD
:10011000991FFC01EA57FF4FA591B491FC01E458E7
:10012000FF4F859194918FB7F894EC91E22BEC936B
:100130008FBF089590E0FC01E859FF4F2491FC0126
:10014000EC55FF4F3491FC01E057FF4FE491EE2353
:10015000C9F0222339F0233001F1A8F4213019F13C
:10016000223029F1F0E0EE0FFF1FE458FF4FA59178
:10017000B4918FB7F894EC91611126C030953E236D
:100180003C938FBF08952730A9F02830C9F0243060
:1001900049F7809180008F7D03C0809180008F7728
:1001A00080938000DFCF84B58F7784BDDBCF84B5AB
:1001B0008F7DFBCF8091B0008F778093B000D2CF3E
:1001C0008091B0008F7DF9CF3E2BDACF3FB7F89406
:1001D0008091530190915401A0915501B091560125
:1001E00026B5A89B05C02F3F19F00196A11DB11D92
:1001F0003FBFBA2FA92F982F8827BC01CD01620FCE
:10020000711D811D911D42E0660F771F881F991F88
:100210004A95D1F708958F929F92AF92BF92CF9255
:10022000DF92EF92FF924B015C010E94E6006B01AE
:100230007C010E94E6006C197D098E099F09683EC9
:10024000734081059105A8F321E0821A9108A10865
:10025000B10888EEC80E83E0D81EE11CF11C8114A1
:100260009104A104B10429F7FF90EF90DF90CF90A3
:10027000BF90AF909F908F900895CF93DF93C6E487
:10028000D1E061E089910E949A0081E0CD34D807E5
:10029000C1F7DF91CF9108951F920F920FB60F9281
:1002A00011242F933F938F939F93AF93BF9380918C
:1002B0004F0190915001A0915101B09152013091A4
:1002C0004E0123E0230F2D3758F50196A11DB11DD6
:1002D00020934E0180934F0190935001A0935101C0
:1002E000B09352018091530190915401A091550116
:1002F000B09156010196A11DB11D809353019093B9
:100300005401A0935501B0935601BF91AF919F91B5
:100310008F913F912F910F900FBE0F901F901895C6
:1003200026E8230F0296A11DB11DD2CF789484B583
:10033000826084BD84B5816084BD85B5826085BDE1
:1003400085B5816085BD80916E00816080936E006F
:100350001092810080918100826080938100809161
:100360008100816080938100809180008160809312
:1003700080008091B10084608093B1008091B000D2
:1003800081608093B00080917A00846080937A00CD
:1003900080917A00826080937A0080917A008160F7
:1003A00080937A0080917A00806880937A0010921E
:1003B000C10086E00E947B0088E00E947B0089E00B
:1003C0000E947B0085E00E947B008AE00E947B0007
:1003D0008BE00E947B008CE00E947B000E943D012C
:1003E00068EE73E080E090E00E940B0196E4692ED5
:1003F00091E0792E2DE4C22E21E0D22E30E0A32E02
:1004000030E0B32EC0E0D1E086E4E82E81E0F82EA3
:10041000470110E000E0FE01E00FF11F6081F401F0
:1004200081914F010E949A000F5F1F4F0730110505
:1004300091F768EC70E080E090E00E940B01279655
:100440006C167D0609F760E0F70181917F010E943B
:100450009A00CE14DF04B9F764EF71E080E090E019
:100460000E940B01A114B10469F20E940000CACFDE
:04047000F894FFCF2E
:10047400010101010101000001010000000001016E
:10048400000101000101010101000001000101005E
:10049400000101010001010001010100010101014C
:1004A400010101010000000001010101010101013C
:0E04B400010101000101060809050A0B0C00F8
:00000001FF
