:080000000C9439000C9400007F
:100008000C9400000C9400000C9400000C94000068
:100018000C9400000C9400000C9400000C94000058
:100028000C9400000C9400000C9400000C94000048
:100038000C9400000C9400000C9400000C94000038
:100048000C9400000C9400000C9400000C94000028
:100058000C9400000C9400000C9400000C94000018
:1000680064000200030068000000F894EE27EFBB6C
:10007800F1E0F5BFE5BF8DE0A2E0BB27ED938A95DF
:10008800E9F780E098E0A0E0B1E0ED930197E9F7A7
:10009800EAE6F0E085919591009761F0A591B59118
:1000A80005901590BF01F00105900D920197E1F7B9
:1000B800FB01F0CFE0E0EEBBEFEFEDBFE8E0EEBF15
:1000C800C0E0D3E00C946800E0E8E0936100E0E071
:1000D800E0936100559A569A2197E0E0E883A88159
:1000E800A33040F45D9A16D05D9814D0E881EF5F94
:1000F800E883F5CFE0E0E883A881A33040F45E9A76
:1001080009D05E9807D0E881EF5FE883F5CF2196A4
:10011800E3CFFFCFA32DB42D0C949200109639F0A5
:1001280080EA9FE00197F1F7A8951197C9F708951C
:00000001FF
