:0A0000000C9434000C9400000C94E2
:10000A0000000C9400000C9400000C9400000C9466
:10001A0000000C9400000C9400000C9400000C9456
:10002A0000000C9400000C9400000C9400000C9446
:10003A0000000C9400000C9400000C9400000C9436
:10004A0000000C9400000C9400000C9400000C9426
:10005A0000000C9400000C9400000C940000F8942A
:10006A00EE27EFBBF1E0F5BFE5BF8DE0A2E0BB27CD
:10007A00ED938A95E9F780E098E0A0E0B1E0ED938E
:10008A000197E9F7E0E0EEBBEFEFEDBFE8E0EEBF86
:10009A00C0E0D3E00C94B400AA93E881E03021F4E4
:1000AA0093D02A9A2B9A2C98A881A13021F45E9891
:1000BA0090D02B982C98A881A23039F45E9A289A6D
:1000CA0029985D9A2A9A2B982C9AA881A33021F410
:1000DA007BD02A982B982C9AA881A43021F45E9878
:1000EA0078D02B9A2C9AA881A53039F45E9A289850
:1000FA00299A5D9A2A982B9A2C9AA881A63039F4C3
:10010A005E9A2898299A5D9A2A9A2B9A2C9AA881FB
:10011A00A73021F45E9A5DD02B982C98A881A8303C
:10012A0021F452D02A9A2B9A2C9AA881A93021F428
:10013A004BD02A982B9A2C9AA881A03139F45E9830
:10014A00289829985D982A982B982C98A881A431E8
:10015A0021F43AD02A9A2B9A2C9A21960895E0E80B
:10016A00E0936100E0E0E0936100569A209A219AB8
:10017A00559A229A239A249A54985C9A57985F9A85
:10018A00A4E18ADFA8EEB3E00E94F300A0E184DFD5
:10019A00A4EFB1E00E94F300E0E04C99E1E03E2ECA
:1001AA00E0E04F99E1E06E2E332011F4A1E005C0A2
:1001BA00662011F4A2E001C0A0E16EDFAAE0B0E07F
:1001CA000E94F300E9CFFFCF5E9A289A299A5D9A96
:1001DA000895289A299A5D982A980895109639F0D0
:1001EA0080EA9FE00197F1F7A8951197C9F708955A
:00000001FF
