:040000000C94340028
:100004000C9400000C9400000C9400000C9400006C
:100014000C9400000C9400000C9400000C9400005C
:100024000C9400000C9400000C9400000C9400004C
:100034000C9400000C9400000C9400000C9400003C
:100044000C9400000C9400000C9400000C9400002C
:100054000C9400000C9400000C9400000C9400001C
:100064000C940000F894EE27EFBBF1E0F5BFE5BF78
:100074008DE0A2E0BB27ED938A95E9F780E098E054
:10008400A0E0B1E0ED930197E9F7E0E0EEBBEFEF1C
:10009400EDBFE8E0EEBFC0E0D3E00C94510004EF04
:1000A40011E02CEE3FEFE0E8E0936100E0E0E09344
:1000B40061005E9AD8010E9478005E98D8010E947F
:1000C4007800020F131F0531E0E01E072CF404E151
:1000D40010E024E130E008C0043FE1E01E0724F012
:1000E40004EF11E02CEE3FEFE4CFFFCF109639F090
:1000F40080EA9FE00197F1F7A8951197C9F7089551
:00000001FF
